:100000000C942A000C9434000C9434000C943400AA
:100010000C9434000C9434000C9434000C94340090
:100020000C9434000C9434000C9434000C94340080
:100030000C9434000C9434000C9434000C94340070
:100040000C9434000C9434000C9434000C94340060
:100050000C94340011241FBECFE5D8E0DEBFCDBF25
:100060000E94EC000C9426010C940000683008F00B
:1000700074C04423D1F58130A1F0813030F082305A
:10008000E1F0833009F069C024C02BB381E090E037
:1000900002C0880F991F6A95E2F7809582238BBB77
:1000A0005AC028B381E090E002C0880F991F6A957A
:1000B000E2F78095822388BB4EC025B381E090E0B3
:1000C00002C0880F991F6A95E2F78095822385BB4D
:1000D00042C022B381E090E002C0880F991F6A9568
:1000E000E2F78095822382BB36C04130A1F5813092
:1000F00091F0813028F08230C9F0833071F521C051
:100100002BB381E090E002C0880F991F6A95E2F757
:10011000282B2BBB20C028B381E090E002C0880FC1
:10012000991F6A95E2F7282B28BB15C025B381E0FB
:1001300090E002C0880F991F6A95E2F7282B25BB33
:100140000AC022B381E090E002C0880F991F6A952F
:10015000E2F7282B22BB81E0089582E008958130E8
:1001600051F0813030F0823041F0833049F082E04C
:1001700008956BBB03C068BB01C065BB81E00895F7
:1001800062BB81E00895FA016830D0F4813049F013
:10019000813028F0823039F0833091F406C089B381
:1001A00005C086B303C083B301C080B390E002C032
:1001B000959587956A95E2F78170808381E008952F
:1001C00082E0089587E08ABB17BA14BA11BA1BBA45
:1001D00018BA15BA12BA0895CF93DF930E94E200BD
:1001E000C8ECD0E080E060E041E00E9436008FEF94
:1001F0009FEFFE013197F1F70197D9F780E060E0BA
:1002000040E00E94360080E061E041E00E9436005C
:1002100080E395E7FE013197F1F70197D9F780E088
:1002200061E040E00E94360080E062E041E00E9430
:1002300036008FEF9FEFFE013197F1F70197D9F765
:1002400080E062E040E00E943600CCCFF894FFCF1F
:00000001FF
